{
  "_format": "hh-sol-artifact-1",
  "contractName": "Deal",
  "sourceName": "contracts/Deal.sol",
  "abi": [
    {
      "inputs": [
        {
          "internalType": "address",
          "name": "_user0",
          "type": "address"
        },
        {
          "internalType": "address",
          "name": "_user1",
          "type": "address"
        },
        {
          "internalType": "address",
          "name": "_token0",
          "type": "address"
        },
        {
          "internalType": "address",
          "name": "_token1",
          "type": "address"
        },
        {
          "internalType": "uint256",
          "name": "_amount0",
          "type": "uint256"
        },
        {
          "internalType": "uint256",
          "name": "_amount1",
          "type": "uint256"
        }
      ],
      "stateMutability": "nonpayable",
      "type": "constructor"
    },
    {
      "anonymous": false,
      "inputs": [
        {
          "indexed": false,
          "internalType": "address",
          "name": "user",
          "type": "address"
        }
      ],
      "name": "Claimed",
      "type": "event"
    },
    {
      "anonymous": false,
      "inputs": [
        {
          "indexed": false,
          "internalType": "uint256",
          "name": "amount",
          "type": "uint256"
        }
      ],
      "name": "DepositToken0",
      "type": "event"
    },
    {
      "anonymous": false,
      "inputs": [
        {
          "indexed": false,
          "internalType": "uint256",
          "name": "amount",
          "type": "uint256"
        }
      ],
      "name": "DepositToken1",
      "type": "event"
    },
    {
      "inputs": [],
      "name": "amount0",
      "outputs": [
        {
          "internalType": "uint256",
          "name": "",
          "type": "uint256"
        }
      ],
      "stateMutability": "view",
      "type": "function"
    },
    {
      "inputs": [],
      "name": "amount1",
      "outputs": [
        {
          "internalType": "uint256",
          "name": "",
          "type": "uint256"
        }
      ],
      "stateMutability": "view",
      "type": "function"
    },
    {
      "inputs": [],
      "name": "claimForBoth",
      "outputs": [],
      "stateMutability": "nonpayable",
      "type": "function"
    },
    {
      "inputs": [],
      "name": "claimForUser0",
      "outputs": [],
      "stateMutability": "nonpayable",
      "type": "function"
    },
    {
      "inputs": [],
      "name": "claimForUser1",
      "outputs": [],
      "stateMutability": "nonpayable",
      "type": "function"
    },
    {
      "inputs": [
        {
          "internalType": "uint256",
          "name": "amount",
          "type": "uint256"
        }
      ],
      "name": "depositToken0",
      "outputs": [],
      "stateMutability": "nonpayable",
      "type": "function"
    },
    {
      "inputs": [
        {
          "internalType": "uint256",
          "name": "amount",
          "type": "uint256"
        }
      ],
      "name": "depositToken1",
      "outputs": [],
      "stateMutability": "nonpayable",
      "type": "function"
    },
    {
      "inputs": [],
      "name": "getDealInfo",
      "outputs": [
        {
          "internalType": "address",
          "name": "",
          "type": "address"
        },
        {
          "internalType": "address",
          "name": "",
          "type": "address"
        },
        {
          "internalType": "address",
          "name": "",
          "type": "address"
        },
        {
          "internalType": "address",
          "name": "",
          "type": "address"
        },
        {
          "internalType": "uint256",
          "name": "",
          "type": "uint256"
        },
        {
          "internalType": "uint256",
          "name": "",
          "type": "uint256"
        }
      ],
      "stateMutability": "view",
      "type": "function"
    },
    {
      "inputs": [],
      "name": "token0",
      "outputs": [
        {
          "internalType": "address",
          "name": "",
          "type": "address"
        }
      ],
      "stateMutability": "view",
      "type": "function"
    },
    {
      "inputs": [],
      "name": "token1",
      "outputs": [
        {
          "internalType": "address",
          "name": "",
          "type": "address"
        }
      ],
      "stateMutability": "view",
      "type": "function"
    },
    {
      "inputs": [],
      "name": "user0",
      "outputs": [
        {
          "internalType": "address",
          "name": "",
          "type": "address"
        }
      ],
      "stateMutability": "view",
      "type": "function"
    },
    {
      "inputs": [],
      "name": "user1",
      "outputs": [
        {
          "internalType": "address",
          "name": "",
          "type": "address"
        }
      ],
      "stateMutability": "view",
      "type": "function"
    }
  ],
  "bytecode": "0x60806040523480156200001157600080fd5b506040516200160338038062001603833981810160405281019062000037919062000182565b856000806101000a81548173ffffffffffffffffffffffffffffffffffffffff021916908373ffffffffffffffffffffffffffffffffffffffff16021790555084600160006101000a81548173ffffffffffffffffffffffffffffffffffffffff021916908373ffffffffffffffffffffffffffffffffffffffff16021790555083600260006101000a81548173ffffffffffffffffffffffffffffffffffffffff021916908373ffffffffffffffffffffffffffffffffffffffff16021790555082600360006101000a81548173ffffffffffffffffffffffffffffffffffffffff021916908373ffffffffffffffffffffffffffffffffffffffff16021790555081600481905550806005819055505050505050506200028a565b600081519050620001658162000256565b92915050565b6000815190506200017c8162000270565b92915050565b60008060008060008060c087890312156200019c57600080fd5b6000620001ac89828a0162000154565b9650506020620001bf89828a0162000154565b9550506040620001d289828a0162000154565b9450506060620001e589828a0162000154565b9350506080620001f889828a016200016b565b92505060a06200020b89828a016200016b565b9150509295509295509295565b600062000225826200022c565b9050919050565b600073ffffffffffffffffffffffffffffffffffffffff82169050919050565b6000819050919050565b620002618162000218565b81146200026d57600080fd5b50565b6200027b816200024c565b81146200028757600080fd5b50565b611369806200029a6000396000f3fe608060405234801561001057600080fd5b50600436106100b45760003560e01c8063a8cf2f4611610071578063a8cf2f461461016e578063ac1717b014610178578063b2bb573a14610196578063d21220a7146101a0578063dba2734f146101be578063f400fde4146101c8576100b4565b80630dfe1681146100b95780636d60502f146100d757806371210a0d146100fa5780638e01f6a214610116578063971e3c43146101345780639906d17514610150575b600080fd5b6100c16101e6565b6040516100ce9190611175565b60405180910390f35b6100df61020c565b6040516100f196959493929190611190565b60405180910390f35b610114600480360381019061010f9190611085565b6102b9565b005b61011e610445565b60405161012b9190611175565b60405180910390f35b61014e60048036038101906101499190611085565b610469565b005b6101586105f3565b6040516101659190611291565b60405180910390f35b6101766105f9565b005b6101806109b7565b60405161018d9190611175565b60405180910390f35b61019e6109dd565b005b6101a8610ce8565b6040516101b59190611175565b60405180910390f35b6101c6610d0e565b005b6101d0611017565b6040516101dd9190611291565b60405180910390f35b600260009054906101000a900473ffffffffffffffffffffffffffffffffffffffff1681565b60008060008060008060008054906101000a900473ffffffffffffffffffffffffffffffffffffffff16600160009054906101000a900473ffffffffffffffffffffffffffffffffffffffff16600260009054906101000a900473ffffffffffffffffffffffffffffffffffffffff16600360009054906101000a900473ffffffffffffffffffffffffffffffffffffffff16600454600554955095509550955095509550909192939495565b600160009054906101000a900473ffffffffffffffffffffffffffffffffffffffff1673ffffffffffffffffffffffffffffffffffffffff163373ffffffffffffffffffffffffffffffffffffffff1614610349576040517f08c379a000000000000000000000000000000000000000000000000000000000815260040161034090611251565b60405180910390fd5b6005548111156103595760055490505b600360009054906101000a900473ffffffffffffffffffffffffffffffffffffffff1673ffffffffffffffffffffffffffffffffffffffff166323b872dd3330846040518463ffffffff1660e01b81526004016103b8939291906111f1565b602060405180830381600087803b1580156103d257600080fd5b505af11580156103e6573d6000803e3d6000fd5b505050506040513d601f19601f8201168201806040525081019061040a919061105c565b507f2202f207718c5252a3176d1fae4c1a874dd20cea9054e80ef6309c334b5c4f138160405161043a9190611291565b60405180910390a150565b60008054906101000a900473ffffffffffffffffffffffffffffffffffffffff1681565b60008054906101000a900473ffffffffffffffffffffffffffffffffffffffff1673ffffffffffffffffffffffffffffffffffffffff163373ffffffffffffffffffffffffffffffffffffffff16146104f7576040517f08c379a00000000000000000000000000000000000000000000000000000000081526004016104ee90611251565b60405180910390fd5b6004548111156105075760045490505b600260009054906101000a900473ffffffffffffffffffffffffffffffffffffffff1673ffffffffffffffffffffffffffffffffffffffff166323b872dd3330846040518463ffffffff1660e01b8152600401610566939291906111f1565b602060405180830381600087803b15801561058057600080fd5b505af1158015610594573d6000803e3d6000fd5b505050506040513d601f19601f820116820180604052508101906105b8919061105c565b507f2c9ab2ff0c860f7b6fffc86668338343eddf9c20c4def81d1f6bd3b9d5dda615816040516105e89190611291565b60405180910390a150565b60045481565b600454600260009054906101000a900473ffffffffffffffffffffffffffffffffffffffff1673ffffffffffffffffffffffffffffffffffffffff166370a08231306040518263ffffffff1660e01b81526004016106579190611175565b60206040518083038186803b15801561066f57600080fd5b505afa158015610683573d6000803e3d6000fd5b505050506040513d601f19601f820116820180604052508101906106a791906110ae565b10156106e8576040517f08c379a00000000000000000000000000000000000000000000000000000000081526004016106df90611271565b60405180910390fd5b600554600360009054906101000a900473ffffffffffffffffffffffffffffffffffffffff1673ffffffffffffffffffffffffffffffffffffffff166370a08231306040518263ffffffff1660e01b81526004016107469190611175565b60206040518083038186803b15801561075e57600080fd5b505afa158015610772573d6000803e3d6000fd5b505050506040513d601f19601f8201168201806040525081019061079691906110ae565b10156107d7576040517f08c379a00000000000000000000000000000000000000000000000000000000081526004016107ce90611271565b60405180910390fd5b600260009054906101000a900473ffffffffffffffffffffffffffffffffffffffff1673ffffffffffffffffffffffffffffffffffffffff1663a9059cbb600160009054906101000a900473ffffffffffffffffffffffffffffffffffffffff166004546040518363ffffffff1660e01b8152600401610858929190611228565b602060405180830381600087803b15801561087257600080fd5b505af1158015610886573d6000803e3d6000fd5b505050506040513d601f19601f820116820180604052508101906108aa919061105c565b50600360009054906101000a900473ffffffffffffffffffffffffffffffffffffffff1673ffffffffffffffffffffffffffffffffffffffff1663a9059cbb60008054906101000a900473ffffffffffffffffffffffffffffffffffffffff166005546040518363ffffffff1660e01b815260040161092a929190611228565b602060405180830381600087803b15801561094457600080fd5b505af1158015610958573d6000803e3d6000fd5b505050506040513d601f19601f8201168201806040525081019061097c919061105c565b507fb449c24d261a59627b537c8c41c57ab559f4205c56bea745ff61c5521bece21460006040516109ad9190611175565b60405180910390a1565b600160009054906101000a900473ffffffffffffffffffffffffffffffffffffffff1681565b600454600260009054906101000a900473ffffffffffffffffffffffffffffffffffffffff1673ffffffffffffffffffffffffffffffffffffffff166370a08231306040518263ffffffff1660e01b8152600401610a3b9190611175565b60206040518083038186803b158015610a5357600080fd5b505afa158015610a67573d6000803e3d6000fd5b505050506040513d601f19601f82011682018060405250810190610a8b91906110ae565b1015610acc576040517f08c379a0000000000000000000000000000000000000000000000000000000008152600401610ac390611271565b60405180910390fd5b600554600360009054906101000a900473ffffffffffffffffffffffffffffffffffffffff1673ffffffffffffffffffffffffffffffffffffffff166370a08231306040518263ffffffff1660e01b8152600401610b2a9190611175565b60206040518083038186803b158015610b4257600080fd5b505afa158015610b56573d6000803e3d6000fd5b505050506040513d601f19601f82011682018060405250810190610b7a91906110ae565b1015610bbb576040517f08c379a0000000000000000000000000000000000000000000000000000000008152600401610bb290611271565b60405180910390fd5b600260009054906101000a900473ffffffffffffffffffffffffffffffffffffffff1673ffffffffffffffffffffffffffffffffffffffff1663a9059cbb600160009054906101000a900473ffffffffffffffffffffffffffffffffffffffff166004546040518363ffffffff1660e01b8152600401610c3c929190611228565b602060405180830381600087803b158015610c5657600080fd5b505af1158015610c6a573d6000803e3d6000fd5b505050506040513d601f19601f82011682018060405250810190610c8e919061105c565b507fb449c24d261a59627b537c8c41c57ab559f4205c56bea745ff61c5521bece21460008054906101000a900473ffffffffffffffffffffffffffffffffffffffff16604051610cde9190611175565b60405180910390a1565b600360009054906101000a900473ffffffffffffffffffffffffffffffffffffffff1681565b600454600260009054906101000a900473ffffffffffffffffffffffffffffffffffffffff1673ffffffffffffffffffffffffffffffffffffffff166370a08231306040518263ffffffff1660e01b8152600401610d6c9190611175565b60206040518083038186803b158015610d8457600080fd5b505afa158015610d98573d6000803e3d6000fd5b505050506040513d601f19601f82011682018060405250810190610dbc91906110ae565b1015610dfd576040517f08c379a0000000000000000000000000000000000000000000000000000000008152600401610df490611271565b60405180910390fd5b600554600360009054906101000a900473ffffffffffffffffffffffffffffffffffffffff1673ffffffffffffffffffffffffffffffffffffffff166370a08231306040518263ffffffff1660e01b8152600401610e5b9190611175565b60206040518083038186803b158015610e7357600080fd5b505afa158015610e87573d6000803e3d6000fd5b505050506040513d601f19601f82011682018060405250810190610eab91906110ae565b1015610eec576040517f08c379a0000000000000000000000000000000000000000000000000000000008152600401610ee390611271565b60405180910390fd5b600360009054906101000a900473ffffffffffffffffffffffffffffffffffffffff1673ffffffffffffffffffffffffffffffffffffffff1663a9059cbb60008054906101000a900473ffffffffffffffffffffffffffffffffffffffff166005546040518363ffffffff1660e01b8152600401610f6b929190611228565b602060405180830381600087803b158015610f8557600080fd5b505af1158015610f99573d6000803e3d6000fd5b505050506040513d601f19601f82011682018060405250810190610fbd919061105c565b507fb449c24d261a59627b537c8c41c57ab559f4205c56bea745ff61c5521bece21460008054906101000a900473ffffffffffffffffffffffffffffffffffffffff1660405161100d9190611175565b60405180910390a1565b60055481565b60008151905061102c81611305565b92915050565b6000813590506110418161131c565b92915050565b6000815190506110568161131c565b92915050565b60006020828403121561106e57600080fd5b600061107c8482850161101d565b91505092915050565b60006020828403121561109757600080fd5b60006110a584828501611032565b91505092915050565b6000602082840312156110c057600080fd5b60006110ce84828501611047565b91505092915050565b6110e0816112bd565b82525050565b60006110f3601a836112ac565b91507f596f752063616e6e6f74206465706f73697420746f6b656e732e0000000000006000830152602082019050919050565b6000611133601b836112ac565b91507f4465616c20636f6e646974696f6e73206172656e2774206d65742e00000000006000830152602082019050919050565b61116f816112fb565b82525050565b600060208201905061118a60008301846110d7565b92915050565b600060c0820190506111a560008301896110d7565b6111b260208301886110d7565b6111bf60408301876110d7565b6111cc60608301866110d7565b6111d96080830185611166565b6111e660a0830184611166565b979650505050505050565b600060608201905061120660008301866110d7565b61121360208301856110d7565b6112206040830184611166565b949350505050565b600060408201905061123d60008301856110d7565b61124a6020830184611166565b9392505050565b6000602082019050818103600083015261126a816110e6565b9050919050565b6000602082019050818103600083015261128a81611126565b9050919050565b60006020820190506112a66000830184611166565b92915050565b600082825260208201905092915050565b60006112c8826112db565b9050919050565b60008115159050919050565b600073ffffffffffffffffffffffffffffffffffffffff82169050919050565b6000819050919050565b61130e816112cf565b811461131957600080fd5b50565b611325816112fb565b811461133057600080fd5b5056fea2646970667358221220e0ff1cf72279bcdf01fca3799675657da77efd55b0b1a15b854b8fccbdeffd9d64736f6c63430008000033",
  "linkReferences": {},
  "deployedLinkReferences": {}
}